{
  "contractName": "IssueManager",
  "abi": [
    {
      "anonymous": false,
      "inputs": [
        {
          "indexed": false,
          "internalType": "string",
          "name": "id",
          "type": "string"
        },
        {
          "indexed": false,
          "internalType": "string",
          "name": "description",
          "type": "string"
        }
      ],
      "name": "IssueCreated",
      "type": "event"
    },
    {
      "inputs": [
        {
          "internalType": "string",
          "name": "_id",
          "type": "string"
        },
        {
          "internalType": "string",
          "name": "_issue_type",
          "type": "string"
        },
        {
          "internalType": "string",
          "name": "_description",
          "type": "string"
        },
        {
          "internalType": "string",
          "name": "_date_of_complaint",
          "type": "string"
        },
        {
          "internalType": "string",
          "name": "_status",
          "type": "string"
        },
        {
          "internalType": "int256",
          "name": "_latitude",
          "type": "int256"
        },
        {
          "internalType": "int256",
          "name": "_longitude",
          "type": "int256"
        }
      ],
      "name": "createIssue",
      "outputs": [
        {
          "internalType": "string",
          "name": "",
          "type": "string"
        }
      ],
      "stateMutability": "nonpayable",
      "type": "function"
    },
    {
      "inputs": [
        {
          "internalType": "string",
          "name": "_id",
          "type": "string"
        }
      ],
      "name": "getIssue",
      "outputs": [
        {
          "internalType": "string",
          "name": "",
          "type": "string"
        },
        {
          "internalType": "string",
          "name": "",
          "type": "string"
        },
        {
          "internalType": "string",
          "name": "",
          "type": "string"
        },
        {
          "internalType": "string",
          "name": "",
          "type": "string"
        },
        {
          "internalType": "string",
          "name": "",
          "type": "string"
        },
        {
          "internalType": "int256",
          "name": "",
          "type": "int256"
        },
        {
          "internalType": "int256",
          "name": "",
          "type": "int256"
        }
      ],
      "stateMutability": "view",
      "type": "function",
      "constant": true
    }
  ],
  "bytecode": "0x608060405234801561001057600080fd5b50610ca5806100206000396000f3fe608060405234801561001057600080fd5b50600436106100365760003560e01c8063814a10961461003b5780638e0f61b814610071575b600080fd5b610055600480360381019061005091906107b1565b6100a1565b6040516100689796959493929190610a31565b60405180910390f35b61008b600480360381019061008691906107f2565b61048e565b60405161009891906109d8565b60405180910390f35b6060806060806060600080600080896040516100bd91906109c1565b908152602001604051809103902060000180546100d990610bb7565b90501161011b576040517f08c379a000000000000000000000000000000000000000000000000000000000815260040161011290610ac3565b60405180910390fd5b6000808960405161012c91906109c1565b90815260200160405180910390206040518060c001604052908160008201805461015590610bb7565b80601f016020809104026020016040519081016040528092919081815260200182805461018190610bb7565b80156101ce5780601f106101a3576101008083540402835291602001916101ce565b820191906000526020600020905b8154815290600101906020018083116101b157829003601f168201915b505050505081526020016001820180546101e790610bb7565b80601f016020809104026020016040519081016040528092919081815260200182805461021390610bb7565b80156102605780601f1061023557610100808354040283529160200191610260565b820191906000526020600020905b81548152906001019060200180831161024357829003601f168201915b5050505050815260200160028201805461027990610bb7565b80601f01602080910402602001604051908101604052809291908181526020018280546102a590610bb7565b80156102f25780601f106102c7576101008083540402835291602001916102f2565b820191906000526020600020905b8154815290600101906020018083116102d557829003601f168201915b5050505050815260200160038201805461030b90610bb7565b80601f016020809104026020016040519081016040528092919081815260200182805461033790610bb7565b80156103845780601f1061035957610100808354040283529160200191610384565b820191906000526020600020905b81548152906001019060200180831161036757829003601f168201915b5050505050815260200160048201805461039d90610bb7565b80601f01602080910402602001604051908101604052809291908181526020018280546103c990610bb7565b80156104165780601f106103eb57610100808354040283529160200191610416565b820191906000526020600020905b8154815290600101906020018083116103f957829003601f168201915b505050505081526020016005820160405180604001604052908160008201548152602001600182015481525050815250509050806000015181602001518260400151836060015184608001518560a00151600001518660a0015160200151975097509750975097509750975050919395979092949650565b6060600080896040516104a191906109c1565b908152602001604051809103902060000180546104bd90610bb7565b90501115610502576040518060400160405280600e81526020017f616c7265616479206578697374730000000000000000000000000000000000008152509050610686565b6040518060c0016040528089815260200188815260200187815260200186815260200185815260200160405180604001604052808681526020018581525081525060008960405161055391906109c1565b9081526020016040518091039020600082015181600001908051906020019061057d929190610691565b50602082015181600101908051906020019061059a929190610691565b5060408201518160020190805190602001906105b7929190610691565b5060608201518160030190805190602001906105d4929190610691565b5060808201518160040190805190602001906105f1929190610691565b5060a082015181600501600082015181600001556020820151816001015550509050507f4794567d22333591aca634b99b062a63e7ba28680d72791e12869b12e1c3a35088876040516106459291906109fa565b60405180910390a16040518060400160405280601a81526020017f49737375652063726561746564207375636365737366756c6c7900000000000081525090505b979650505050505050565b82805461069d90610bb7565b90600052602060002090601f0160209004810192826106bf5760008555610706565b82601f106106d857805160ff1916838001178555610706565b82800160010185558215610706579182015b828111156107055782518255916020019190600101906106ea565b5b5090506107139190610717565b5090565b5b80821115610730576000816000905550600101610718565b5090565b600061074761074284610b14565b610ae3565b90508281526020810184848401111561075f57600080fd5b61076a848285610b75565b509392505050565b60008135905061078181610c58565b92915050565b600082601f83011261079857600080fd5b81356107a8848260208601610734565b91505092915050565b6000602082840312156107c357600080fd5b600082013567ffffffffffffffff8111156107dd57600080fd5b6107e984828501610787565b91505092915050565b600080600080600080600060e0888a03121561080d57600080fd5b600088013567ffffffffffffffff81111561082757600080fd5b6108338a828b01610787565b975050602088013567ffffffffffffffff81111561085057600080fd5b61085c8a828b01610787565b965050604088013567ffffffffffffffff81111561087957600080fd5b6108858a828b01610787565b955050606088013567ffffffffffffffff8111156108a257600080fd5b6108ae8a828b01610787565b945050608088013567ffffffffffffffff8111156108cb57600080fd5b6108d78a828b01610787565b93505060a06108e88a828b01610772565b92505060c06108f98a828b01610772565b91505092959891949750929550565b61091181610b6b565b82525050565b600061092282610b44565b61092c8185610b4f565b935061093c818560208601610b84565b61094581610c47565b840191505092915050565b600061095b82610b44565b6109658185610b60565b9350610975818560208601610b84565b80840191505092915050565b600061098e600f83610b4f565b91507f4973737565206e6f7420666f756e6400000000000000000000000000000000006000830152602082019050919050565b60006109cd8284610950565b915081905092915050565b600060208201905081810360008301526109f28184610917565b905092915050565b60006040820190508181036000830152610a148185610917565b90508181036020830152610a288184610917565b90509392505050565b600060e0820190508181036000830152610a4b818a610917565b90508181036020830152610a5f8189610917565b90508181036040830152610a738188610917565b90508181036060830152610a878187610917565b90508181036080830152610a9b8186610917565b9050610aaa60a0830185610908565b610ab760c0830184610908565b98975050505050505050565b60006020820190508181036000830152610adc81610981565b9050919050565b6000604051905081810181811067ffffffffffffffff82111715610b0a57610b09610c18565b5b8060405250919050565b600067ffffffffffffffff821115610b2f57610b2e610c18565b5b601f19601f8301169050602081019050919050565b600081519050919050565b600082825260208201905092915050565b600081905092915050565b6000819050919050565b82818337600083830152505050565b60005b83811015610ba2578082015181840152602081019050610b87565b83811115610bb1576000848401525b50505050565b60006002820490506001821680610bcf57607f821691505b60208210811415610be357610be2610be9565b5b50919050565b7f4e487b7100000000000000000000000000000000000000000000000000000000600052602260045260246000fd5b7f4e487b7100000000000000000000000000000000000000000000000000000000600052604160045260246000fd5b6000601f19601f8301169050919050565b610c6181610b6b565b8114610c6c57600080fd5b5056fea2646970667358221220e7032593ccef7c5f1c4e5d1516c9e8e73896b97c862fbbcd235c46cfb53351e864736f6c63430008000033",
  "immutableReferences": {},
  "source": "// SPDX-License-Identifier: MIT\r\npragma solidity ^0.8.0;\r\n\r\ncontract IssueManager {\r\n    struct Issue {\r\n        string id;\r\n        string issue_type;\r\n        string description;\r\n        string date_of_complaint;\r\n        string status;\r\n        Location location;\r\n    }\r\n\r\n    struct Location {\r\n        int256 latitude;\r\n        int256 longitude;\r\n    }\r\n\r\n    mapping(string => Issue) private issues;\r\n\r\n\r\n    event IssueCreated(string id, string description);\r\n\r\n\r\n    function createIssue(\r\n        string memory _id,\r\n        string memory _issue_type,\r\n        string memory _description,\r\n        string memory _date_of_complaint,\r\n        string memory _status,\r\n        int256 _latitude,\r\n        int256 _longitude\r\n    ) public returns (string memory) {\r\n     \r\n        if (bytes(issues[_id].id).length > 0) {\r\n            return \"already exists\";\r\n        }\r\n\r\n    \r\n        issues[_id] = Issue(\r\n            _id,\r\n            _issue_type,\r\n            _description,\r\n            _date_of_complaint,\r\n            _status,\r\n            Location(_latitude, _longitude)\r\n        );\r\n\r\n        emit IssueCreated(_id, _description);\r\n        return \"Issue created successfully\";\r\n    }\r\n\r\n\r\n    function getIssue(string memory _id)\r\n        public\r\n        view\r\n        returns (\r\n            string memory,\r\n            string memory,\r\n            string memory,\r\n            string memory,\r\n            string memory,\r\n            int256,\r\n            int256\r\n        )\r\n    {\r\n        require(bytes(issues[_id].id).length > 0, \"Issue not found\");\r\n\r\n        Issue memory issue = issues[_id];\r\n        return (\r\n            issue.id,\r\n            issue.issue_type,\r\n            issue.description,\r\n            issue.date_of_complaint,\r\n            issue.status,\r\n            issue.location.latitude,\r\n            issue.location.longitude\r\n        );\r\n    }\r\n}\r\n",
  "sourcePath": "E:\\Code\\Innerve9\\Blockchain\\contracts\\Issue.sol",
  "compiler": {
    "name": "solc",
    "version": "0.8.0+commit.c7dfd78e.Emscripten.clang"
  },
  "schemaVersion": "3.4.16",
  "updatedAt": "2025-01-19T11:48:58.433Z",
  "networkType": "ethereum",
  "devdoc": {
    "kind": "dev",
    "methods": {},
    "version": 1
  },
  "userdoc": {
    "kind": "user",
    "methods": {},
    "version": 1
  }
}