{
  "contractName": "ProjectUpdate",
  "abi": [
    {
      "inputs": [
        {
          "internalType": "string",
          "name": "",
          "type": "string"
        },
        {
          "internalType": "uint256",
          "name": "",
          "type": "uint256"
        }
      ],
      "name": "projectUpdates",
      "outputs": [
        {
          "internalType": "string",
          "name": "referenceId",
          "type": "string"
        },
        {
          "internalType": "string",
          "name": "contractorId",
          "type": "string"
        },
        {
          "internalType": "uint256",
          "name": "amountUsed",
          "type": "uint256"
        },
        {
          "internalType": "string",
          "name": "selectedOption",
          "type": "string"
        },
        {
          "internalType": "bool",
          "name": "status",
          "type": "bool"
        }
      ],
      "stateMutability": "view",
      "type": "function",
      "constant": true
    },
    {
      "inputs": [
        {
          "internalType": "string",
          "name": "_referenceId",
          "type": "string"
        },
        {
          "internalType": "string",
          "name": "_contractorId",
          "type": "string"
        },
        {
          "internalType": "uint256",
          "name": "_amountUsed",
          "type": "uint256"
        },
        {
          "internalType": "string",
          "name": "_selectedOption",
          "type": "string"
        },
        {
          "internalType": "bool",
          "name": "_status",
          "type": "bool"
        }
      ],
      "name": "addUpdate",
      "outputs": [],
      "stateMutability": "nonpayable",
      "type": "function"
    },
    {
      "inputs": [
        {
          "internalType": "string",
          "name": "_referenceId",
          "type": "string"
        }
      ],
      "name": "getUpdatesByReferenceId",
      "outputs": [
        {
          "components": [
            {
              "internalType": "string",
              "name": "referenceId",
              "type": "string"
            },
            {
              "internalType": "string",
              "name": "contractorId",
              "type": "string"
            },
            {
              "internalType": "uint256",
              "name": "amountUsed",
              "type": "uint256"
            },
            {
              "internalType": "string",
              "name": "selectedOption",
              "type": "string"
            },
            {
              "internalType": "bool",
              "name": "status",
              "type": "bool"
            }
          ],
          "internalType": "struct ProjectUpdate.Update[]",
          "name": "",
          "type": "tuple[]"
        }
      ],
      "stateMutability": "view",
      "type": "function",
      "constant": true
    }
  ],
  "bytecode": "0x608060405234801561001057600080fd5b50610d71806100206000396000f3fe608060405234801561001057600080fd5b50600436106100415760003560e01c806301f5a86314610046578063560367d91461007a5780635cacb86c14610096575b600080fd5b610060600480360381019061005b9190610861565b6100c6565b604051610071959493929190610ada565b60405180910390f35b610094600480360381019061008f91906107a2565b6102d4565b005b6100b060048036038101906100ab9190610761565b6103d4565b6040516100bd9190610ab8565b60405180910390f35b60008280516020810182018051848252602083016020850120818352809550505050505081815481106100f857600080fd5b90600052602060002090600502016000915091505080600001805461011c90610c6c565b80601f016020809104026020016040519081016040528092919081815260200182805461014890610c6c565b80156101955780601f1061016a57610100808354040283529160200191610195565b820191906000526020600020905b81548152906001019060200180831161017857829003601f168201915b5050505050908060010180546101aa90610c6c565b80601f01602080910402602001604051908101604052809291908181526020018280546101d690610c6c565b80156102235780601f106101f857610100808354040283529160200191610223565b820191906000526020600020905b81548152906001019060200180831161020657829003601f168201915b50505050509080600201549080600301805461023e90610c6c565b80601f016020809104026020016040519081016040528092919081815260200182805461026a90610c6c565b80156102b75780601f1061028c576101008083540402835291602001916102b7565b820191906000526020600020905b81548152906001019060200180831161029a57829003601f168201915b5050505050908060040160009054906101000a900460ff16905085565b60006040518060a0016040528087815260200186815260200185815260200184815260200183151581525090506000866040516103119190610aa1565b9081526020016040518091039020819080600181540180825580915050600190039060005260206000209060050201600090919091909150600082015181600001908051906020019061036592919061062c565b50602082015181600101908051906020019061038292919061062c565b506040820151816002015560608201518160030190805190602001906103a992919061062c565b5060808201518160040160006101000a81548160ff0219169083151502179055505050505050505050565b60606000826040516103e69190610aa1565b9081526020016040518091039020805480602002602001604051908101604052809291908181526020016000905b8282101561062157838290600052602060002090600502016040518060a001604052908160008201805461044790610c6c565b80601f016020809104026020016040519081016040528092919081815260200182805461047390610c6c565b80156104c05780601f10610495576101008083540402835291602001916104c0565b820191906000526020600020905b8154815290600101906020018083116104a357829003601f168201915b505050505081526020016001820180546104d990610c6c565b80601f016020809104026020016040519081016040528092919081815260200182805461050590610c6c565b80156105525780601f1061052757610100808354040283529160200191610552565b820191906000526020600020905b81548152906001019060200180831161053557829003601f168201915b505050505081526020016002820154815260200160038201805461057590610c6c565b80601f01602080910402602001604051908101604052809291908181526020018280546105a190610c6c565b80156105ee5780601f106105c3576101008083540402835291602001916105ee565b820191906000526020600020905b8154815290600101906020018083116105d157829003601f168201915b505050505081526020016004820160009054906101000a900460ff16151515158152505081526020019060010190610414565b505050509050919050565b82805461063890610c6c565b90600052602060002090601f01602090048101928261065a57600085556106a1565b82601f1061067357805160ff19168380011785556106a1565b828001600101855582156106a1579182015b828111156106a0578251825591602001919060010190610685565b5b5090506106ae91906106b2565b5090565b5b808211156106cb5760008160009055506001016106b3565b5090565b60006106e26106dd84610b73565b610b42565b9050828152602081018484840111156106fa57600080fd5b610705848285610c2a565b509392505050565b60008135905061071c81610d0d565b92915050565b600082601f83011261073357600080fd5b81356107438482602086016106cf565b91505092915050565b60008135905061075b81610d24565b92915050565b60006020828403121561077357600080fd5b600082013567ffffffffffffffff81111561078d57600080fd5b61079984828501610722565b91505092915050565b600080600080600060a086880312156107ba57600080fd5b600086013567ffffffffffffffff8111156107d457600080fd5b6107e088828901610722565b955050602086013567ffffffffffffffff8111156107fd57600080fd5b61080988828901610722565b945050604061081a8882890161074c565b935050606086013567ffffffffffffffff81111561083757600080fd5b61084388828901610722565b92505060806108548882890161070d565b9150509295509295909350565b6000806040838503121561087457600080fd5b600083013567ffffffffffffffff81111561088e57600080fd5b61089a85828601610722565b92505060206108ab8582860161074c565b9150509250929050565b60006108c183836109ff565b905092915050565b60006108d482610bb3565b6108de8185610bd6565b9350836020820285016108f085610ba3565b8060005b8581101561092c578484038952815161090d85826108b5565b945061091883610bc9565b925060208a019950506001810190506108f4565b50829750879550505050505092915050565b61094781610c14565b82525050565b61095681610c14565b82525050565b600061096782610bbe565b6109718185610be7565b9350610981818560208601610c39565b61098a81610cfc565b840191505092915050565b60006109a082610bbe565b6109aa8185610bf8565b93506109ba818560208601610c39565b6109c381610cfc565b840191505092915050565b60006109d982610bbe565b6109e38185610c09565b93506109f3818560208601610c39565b80840191505092915050565b600060a0830160008301518482036000860152610a1c828261095c565b91505060208301518482036020860152610a36828261095c565b9150506040830151610a4b6040860182610a83565b5060608301518482036060860152610a63828261095c565b9150506080830151610a78608086018261093e565b508091505092915050565b610a8c81610c20565b82525050565b610a9b81610c20565b82525050565b6000610aad82846109ce565b915081905092915050565b60006020820190508181036000830152610ad281846108c9565b905092915050565b600060a0820190508181036000830152610af48188610995565b90508181036020830152610b088187610995565b9050610b176040830186610a92565b8181036060830152610b298185610995565b9050610b38608083018461094d565b9695505050505050565b6000604051905081810181811067ffffffffffffffff82111715610b6957610b68610ccd565b5b8060405250919050565b600067ffffffffffffffff821115610b8e57610b8d610ccd565b5b601f19601f8301169050602081019050919050565b6000819050602082019050919050565b600081519050919050565b600081519050919050565b6000602082019050919050565b600082825260208201905092915050565b600082825260208201905092915050565b600082825260208201905092915050565b600081905092915050565b60008115159050919050565b6000819050919050565b82818337600083830152505050565b60005b83811015610c57578082015181840152602081019050610c3c565b83811115610c66576000848401525b50505050565b60006002820490506001821680610c8457607f821691505b60208210811415610c9857610c97610c9e565b5b50919050565b7f4e487b7100000000000000000000000000000000000000000000000000000000600052602260045260246000fd5b7f4e487b7100000000000000000000000000000000000000000000000000000000600052604160045260246000fd5b6000601f19601f8301169050919050565b610d1681610c14565b8114610d2157600080fd5b50565b610d2d81610c20565b8114610d3857600080fd5b5056fea264697066735822122034a0a94538786ed90d025d80bc123fd36b25e417f6812f96762159f360eabd3364736f6c63430008000033",
  "immutableReferences": {},
  "source": "// SPDX-License-Identifier: MIT\r\npragma solidity ^0.8.0;\r\n\r\ncontract ProjectUpdate {\r\n    struct Update {\r\n        string referenceId;   \r\n        string contractorId;   \r\n        uint256 amountUsed;    \r\n        string selectedOption;  \r\n        bool status;           \r\n    }\r\n\r\n  \r\n    mapping(string => Update[]) public projectUpdates;\r\n\r\n\r\n    function addUpdate(\r\n        string memory _referenceId,\r\n        string memory _contractorId,\r\n        uint256 _amountUsed,\r\n        string memory _selectedOption,\r\n        bool _status\r\n    ) public {\r\n        Update memory newUpdate = Update({\r\n            referenceId: _referenceId,\r\n            contractorId: _contractorId,\r\n            amountUsed: _amountUsed,\r\n            selectedOption: _selectedOption,\r\n            status: _status\r\n        });\r\n\r\n        projectUpdates[_referenceId].push(newUpdate);\r\n    }\r\n\r\n   \r\n    function getUpdatesByReferenceId(string memory _referenceId)\r\n        public\r\n        view\r\n        returns (Update[] memory)\r\n    {\r\n        return projectUpdates[_referenceId];\r\n    }\r\n}\r\n",
  "sourcePath": "E:\\Code\\Innerve9\\Blockchain\\contracts\\ProjectUpdate.sol",
  "compiler": {
    "name": "solc",
    "version": "0.8.0+commit.c7dfd78e.Emscripten.clang"
  },
  "schemaVersion": "3.4.16",
  "updatedAt": "2025-01-19T15:55:30.285Z",
  "networkType": "ethereum",
  "devdoc": {
    "kind": "dev",
    "methods": {},
    "version": 1
  },
  "userdoc": {
    "kind": "user",
    "methods": {},
    "version": 1
  }
}