{
  "contractName": "Project",
  "abi": [
    {
      "anonymous": false,
      "inputs": [
        {
          "indexed": false,
          "internalType": "string",
          "name": "contractorId",
          "type": "string"
        },
        {
          "indexed": false,
          "internalType": "string",
          "name": "referenceId",
          "type": "string"
        },
        {
          "indexed": false,
          "internalType": "uint256",
          "name": "bidAmount",
          "type": "uint256"
        },
        {
          "indexed": false,
          "internalType": "uint256",
          "name": "panelId",
          "type": "uint256"
        }
      ],
      "name": "BidSubmitted",
      "type": "event"
    },
    {
      "inputs": [
        {
          "internalType": "string",
          "name": "contractorId",
          "type": "string"
        },
        {
          "internalType": "string",
          "name": "organisationChain",
          "type": "string"
        },
        {
          "internalType": "string",
          "name": "referenceId",
          "type": "string"
        },
        {
          "internalType": "uint256",
          "name": "bidAmount",
          "type": "uint256"
        },
        {
          "internalType": "uint256",
          "name": "panelId",
          "type": "uint256"
        }
      ],
      "name": "submitBid",
      "outputs": [],
      "stateMutability": "nonpayable",
      "type": "function"
    },
    {
      "inputs": [
        {
          "internalType": "string",
          "name": "contractorId",
          "type": "string"
        },
        {
          "internalType": "string",
          "name": "referenceId",
          "type": "string"
        }
      ],
      "name": "getBid",
      "outputs": [
        {
          "internalType": "string",
          "name": "",
          "type": "string"
        },
        {
          "internalType": "string",
          "name": "",
          "type": "string"
        },
        {
          "internalType": "string",
          "name": "",
          "type": "string"
        },
        {
          "internalType": "uint256",
          "name": "",
          "type": "uint256"
        },
        {
          "internalType": "uint256",
          "name": "",
          "type": "uint256"
        }
      ],
      "stateMutability": "view",
      "type": "function",
      "constant": true
    }
  ],
  "bytecode": "0x608060405234801561001057600080fd5b50610a07806100206000396000f3fe608060405234801561001057600080fd5b50600436106100365760003560e01c80639da688811461003b578063d2c7edb51461006f575b600080fd5b61005560048036038101906100509190610549565b61008b565b60405161006695949392919061076a565b60405180910390f35b610089600480360381019061008491906105b5565b6102d3565b005b6060806060600080600080886040516100a49190610753565b9081526020016040518091039020876040516100c09190610753565b90815260200160405180910390206040518060a00160405290816000820180546100e990610919565b80601f016020809104026020016040519081016040528092919081815260200182805461011590610919565b80156101625780601f1061013757610100808354040283529160200191610162565b820191906000526020600020905b81548152906001019060200180831161014557829003601f168201915b5050505050815260200160018201805461017b90610919565b80601f01602080910402602001604051908101604052809291908181526020018280546101a790610919565b80156101f45780601f106101c9576101008083540402835291602001916101f4565b820191906000526020600020905b8154815290600101906020018083116101d757829003601f168201915b5050505050815260200160028201805461020d90610919565b80601f016020809104026020016040519081016040528092919081815260200182805461023990610919565b80156102865780601f1061025b57610100808354040283529160200191610286565b820191906000526020600020905b81548152906001019060200180831161026957829003601f168201915b505050505081526020016003820154815260200160048201548152505090508060000151816020015182604001518360600151846080015195509550955095509550509295509295909350565b60008211610316576040517f08c379a000000000000000000000000000000000000000000000000000000000815260040161030d90610825565b60405180910390fd5b6040518060a001604052808681526020018581526020018481526020018381526020018281525060008660405161034d9190610753565b9081526020016040518091039020846040516103699190610753565b90815260200160405180910390206000820151816000019080519060200190610393929190610429565b5060208201518160010190805190602001906103b0929190610429565b5060408201518160020190805190602001906103cd929190610429565b5060608201518160030155608082015181600401559050507fcaf117207cb7c741d841384ae9d7ffac63469fb2969b2516d20dbdd62cc1f0518584848460405161041a94939291906107d2565b60405180910390a15050505050565b82805461043590610919565b90600052602060002090601f016020900481019282610457576000855561049e565b82601f1061047057805160ff191683800117855561049e565b8280016001018555821561049e579182015b8281111561049d578251825591602001919060010190610482565b5b5090506104ab91906104af565b5090565b5b808211156104c85760008160009055506001016104b0565b5090565b60006104df6104da84610876565b610845565b9050828152602081018484840111156104f757600080fd5b6105028482856108d7565b509392505050565b600082601f83011261051b57600080fd5b813561052b8482602086016104cc565b91505092915050565b600081359050610543816109ba565b92915050565b6000806040838503121561055c57600080fd5b600083013567ffffffffffffffff81111561057657600080fd5b6105828582860161050a565b925050602083013567ffffffffffffffff81111561059f57600080fd5b6105ab8582860161050a565b9150509250929050565b600080600080600060a086880312156105cd57600080fd5b600086013567ffffffffffffffff8111156105e757600080fd5b6105f38882890161050a565b955050602086013567ffffffffffffffff81111561061057600080fd5b61061c8882890161050a565b945050604086013567ffffffffffffffff81111561063957600080fd5b6106458882890161050a565b935050606061065688828901610534565b925050608061066788828901610534565b9150509295509295909350565b600061067f826108a6565b61068981856108b1565b93506106998185602086016108e6565b6106a2816109a9565b840191505092915050565b60006106b8826108a6565b6106c281856108c2565b93506106d28185602086016108e6565b80840191505092915050565b60006106eb6026836108b1565b91507f42696420616d6f756e742073686f756c6420626520677265617465722074686160008301527f6e207a65726f00000000000000000000000000000000000000000000000000006020830152604082019050919050565b61074d816108cd565b82525050565b600061075f82846106ad565b915081905092915050565b600060a08201905081810360008301526107848188610674565b905081810360208301526107988187610674565b905081810360408301526107ac8186610674565b90506107bb6060830185610744565b6107c86080830184610744565b9695505050505050565b600060808201905081810360008301526107ec8187610674565b905081810360208301526108008186610674565b905061080f6040830185610744565b61081c6060830184610744565b95945050505050565b6000602082019050818103600083015261083e816106de565b9050919050565b6000604051905081810181811067ffffffffffffffff8211171561086c5761086b61097a565b5b8060405250919050565b600067ffffffffffffffff8211156108915761089061097a565b5b601f19601f8301169050602081019050919050565b600081519050919050565b600082825260208201905092915050565b600081905092915050565b6000819050919050565b82818337600083830152505050565b60005b838110156109045780820151818401526020810190506108e9565b83811115610913576000848401525b50505050565b6000600282049050600182168061093157607f821691505b602082108114156109455761094461094b565b5b50919050565b7f4e487b7100000000000000000000000000000000000000000000000000000000600052602260045260246000fd5b7f4e487b7100000000000000000000000000000000000000000000000000000000600052604160045260246000fd5b6000601f19601f8301169050919050565b6109c3816108cd565b81146109ce57600080fd5b5056fea2646970667358221220cf5b2700da8d47c35e24599cbba3b7f076eb6532ddf83b02c99e0f6efe09d79864736f6c63430008000033",
  "immutableReferences": {},
  "source": "pragma solidity ^0.8.0;\r\n\r\ncontract Project{\r\n\r\n    struct Bid {\r\n        string contractorId;\r\n        string organisationChain;\r\n        string referenceId;   \r\n        uint256 bidAmount;\r\n        uint256 panelId;\r\n    }\r\n\r\n    mapping(string => mapping(string => Bid)) private bids; \r\n    event BidSubmitted(string contractorId, string referenceId, uint256 bidAmount, uint256 panelId);\r\n\r\n \r\n    function submitBid(\r\n        string memory contractorId,\r\n        string memory organisationChain,\r\n        string memory referenceId,\r\n        uint256 bidAmount,\r\n        uint256 panelId\r\n    ) public {\r\n        require(bidAmount > 0, \"Bid amount should be greater than zero\");\r\n\r\n    \r\n        bids[contractorId][referenceId] = Bid(\r\n            contractorId,\r\n            organisationChain,\r\n            referenceId,\r\n            bidAmount,\r\n            panelId\r\n        );\r\n\r\n        emit BidSubmitted(contractorId, referenceId, bidAmount, panelId);\r\n    }\r\n\r\n    function getBid(string memory contractorId, string memory referenceId) public view returns (\r\n        string memory, string memory, string memory, uint256, uint256\r\n    ) {\r\n        Bid memory bid = bids[contractorId][referenceId];\r\n        return (bid.contractorId, bid.organisationChain, bid.referenceId, bid.bidAmount, bid.panelId);\r\n    }\r\n}\r\n",
  "sourcePath": "E:\\Code\\Innerve9\\Blockchain\\contracts\\Project.sol",
  "compiler": {
    "name": "solc",
    "version": "0.8.0+commit.c7dfd78e.Emscripten.clang"
  },
  "schemaVersion": "3.4.16",
  "updatedAt": "2025-01-19T15:55:51.927Z",
  "networkType": "ethereum",
  "devdoc": {
    "kind": "dev",
    "methods": {},
    "version": 1
  },
  "userdoc": {
    "kind": "user",
    "methods": {},
    "version": 1
  }
}