{
  "contractName": "VotingSystem",
  "abi": [
    {
      "anonymous": false,
      "inputs": [
        {
          "indexed": false,
          "internalType": "uint256",
          "name": "spendId",
          "type": "uint256"
        },
        {
          "indexed": false,
          "internalType": "string",
          "name": "reason",
          "type": "string"
        }
      ],
      "name": "SpendCreated",
      "type": "event"
    },
    {
      "anonymous": false,
      "inputs": [
        {
          "indexed": false,
          "internalType": "uint256",
          "name": "spendId",
          "type": "uint256"
        },
        {
          "indexed": false,
          "internalType": "bool",
          "name": "approved",
          "type": "bool"
        }
      ],
      "name": "SpendVoted",
      "type": "event"
    },
    {
      "inputs": [
        {
          "internalType": "uint256",
          "name": "",
          "type": "uint256"
        }
      ],
      "name": "spends",
      "outputs": [
        {
          "internalType": "uint256",
          "name": "spendId",
          "type": "uint256"
        },
        {
          "internalType": "string",
          "name": "reason",
          "type": "string"
        },
        {
          "internalType": "uint256",
          "name": "totalVotes",
          "type": "uint256"
        },
        {
          "internalType": "uint256",
          "name": "approvalVotes",
          "type": "uint256"
        },
        {
          "internalType": "uint256",
          "name": "denialVotes",
          "type": "uint256"
        },
        {
          "internalType": "bool",
          "name": "approved",
          "type": "bool"
        },
        {
          "internalType": "bool",
          "name": "resolved",
          "type": "bool"
        }
      ],
      "stateMutability": "view",
      "type": "function",
      "constant": true
    },
    {
      "inputs": [
        {
          "internalType": "uint256",
          "name": "_spendId",
          "type": "uint256"
        },
        {
          "internalType": "string",
          "name": "_reason",
          "type": "string"
        }
      ],
      "name": "createSpend",
      "outputs": [],
      "stateMutability": "nonpayable",
      "type": "function"
    },
    {
      "inputs": [
        {
          "internalType": "uint256",
          "name": "_spendId",
          "type": "uint256"
        },
        {
          "internalType": "uint256",
          "name": "_approvalVotes",
          "type": "uint256"
        },
        {
          "internalType": "uint256",
          "name": "_denialVotes",
          "type": "uint256"
        },
        {
          "internalType": "uint256",
          "name": "_totalVotes",
          "type": "uint256"
        }
      ],
      "name": "voteOnSpend",
      "outputs": [],
      "stateMutability": "nonpayable",
      "type": "function"
    },
    {
      "inputs": [
        {
          "internalType": "uint256",
          "name": "_spendId",
          "type": "uint256"
        }
      ],
      "name": "getSpendById",
      "outputs": [
        {
          "internalType": "uint256",
          "name": "spendId",
          "type": "uint256"
        },
        {
          "internalType": "string",
          "name": "reason",
          "type": "string"
        },
        {
          "internalType": "uint256",
          "name": "totalVotes",
          "type": "uint256"
        },
        {
          "internalType": "uint256",
          "name": "approvalVotes",
          "type": "uint256"
        },
        {
          "internalType": "uint256",
          "name": "denialVotes",
          "type": "uint256"
        },
        {
          "internalType": "bool",
          "name": "approved",
          "type": "bool"
        },
        {
          "internalType": "bool",
          "name": "resolved",
          "type": "bool"
        }
      ],
      "stateMutability": "view",
      "type": "function",
      "constant": true
    }
  ],
  "bytecode": "0x608060405234801561001057600080fd5b50611090806100206000396000f3fe608060405234801561001057600080fd5b506004361061004c5760003560e01c80631886cab6146100515780636dac19ee14610087578063b334bf03146100a3578063dcfbb3d3146100bf575b600080fd5b61006b6004803603810190610066919061081a565b6100f5565b60405161007e9796959493929190610901565b60405180910390f35b6100a1600480360381019061009c9190610977565b6101e9565b005b6100bd60048036038101906100b89190610b13565b61047e565b005b6100d960048036038101906100d4919061081a565b6105a2565b6040516100ec9796959493929190610901565b60405180910390f35b6000818154811061010557600080fd5b906000526020600020906006020160009150905080600001549080600101805461012e90610b9e565b80601f016020809104026020016040519081016040528092919081815260200182805461015a90610b9e565b80156101a75780601f1061017c576101008083540402835291602001916101a7565b820191906000526020600020905b81548152906001019060200180831161018a57829003601f168201915b5050505050908060020154908060030154908060040154908060050160009054906101000a900460ff16908060050160019054906101000a900460ff16905087565b60005b60008054905081101561047757846000828154811061020e5761020d610bcf565b5b90600052602060002090600602016000015403610464576000818154811061023957610238610bcf565b5b906000526020600020906006020160050160019054906101000a900460ff1615610298576040517f08c379a000000000000000000000000000000000000000000000000000000000815260040161028f90610c4a565b60405180910390fd5b83600082815481106102ad576102ac610bcf565b5b90600052602060002090600602016003018190555082600082815481106102d7576102d6610bcf565b5b906000526020600020906006020160040181905550816000828154811061030157610300610bcf565b5b90600052602060002090600602016002018190555060016000828154811061032c5761032b610bcf565b5b906000526020600020906006020160050160016101000a81548160ff0219169083151502179055506033826064866103649190610c99565b61036e9190610d0a565b106103b65760016000828154811061038957610388610bcf565b5b906000526020600020906006020160050160006101000a81548160ff0219169083151502179055506103f4565b60008082815481106103cb576103ca610bcf565b5b906000526020600020906006020160050160006101000a81548160ff0219169083151502179055505b7fc019c46d1f5f4ccee64778ee81f4df73b6f408eb6efcf3f613d768d8d9338f60856000838154811061042a57610429610bcf565b5b906000526020600020906006020160050160009054906101000a900460ff16604051610457929190610d3b565b60405180910390a1610477565b808061046f90610d64565b9150506101ec565b5050505050565b60006040518060e001604052808481526020018381526020016000815260200160008152602001600081526020016000151581526020016000151581525090806001815401808255809150506001900390600052602060002090600602016000909190919091506000820151816000015560208201518160010190816105049190610f58565b5060408201518160020155606082015181600301556080820151816004015560a08201518160050160006101000a81548160ff02191690831515021790555060c08201518160050160016101000a81548160ff02191690831515021790555050507f10a2e600a3f565b83632ee064c8ff1b8416d1f92f4d53325e3c0584661498c50828260405161059692919061102a565b60405180910390a15050565b60006060600080600080600080600090505b6000805490508110156107c35788600082815481106105d6576105d5610bcf565b5b906000526020600020906006020160000154036107b0576000818154811061060157610600610bcf565b5b9060005260206000209060060201600001546000828154811061062757610626610bcf565b5b90600052602060002090600602016001016000838154811061064c5761064b610bcf565b5b9060005260206000209060060201600201546000848154811061067257610671610bcf565b5b9060005260206000209060060201600301546000858154811061069857610697610bcf565b5b906000526020600020906006020160040154600086815481106106be576106bd610bcf565b5b906000526020600020906006020160050160009054906101000a900460ff16600087815481106106f1576106f0610bcf565b5b906000526020600020906006020160050160019054906101000a900460ff1685805461071c90610b9e565b80601f016020809104026020016040519081016040528092919081815260200182805461074890610b9e565b80156107955780601f1061076a57610100808354040283529160200191610795565b820191906000526020600020905b81548152906001019060200180831161077857829003601f168201915b505050505095509750975097509750975097509750506107c5565b80806107bb90610d64565b9150506105b4565b505b919395979092949650565b6000604051905090565b600080fd5b600080fd5b6000819050919050565b6107f7816107e4565b811461080257600080fd5b50565b600081359050610814816107ee565b92915050565b6000602082840312156108305761082f6107da565b5b600061083e84828501610805565b91505092915050565b610850816107e4565b82525050565b600081519050919050565b600082825260208201905092915050565b60005b83811015610890578082015181840152602081019050610875565b60008484015250505050565b6000601f19601f8301169050919050565b60006108b882610856565b6108c28185610861565b93506108d2818560208601610872565b6108db8161089c565b840191505092915050565b60008115159050919050565b6108fb816108e6565b82525050565b600060e082019050610916600083018a610847565b818103602083015261092881896108ad565b90506109376040830188610847565b6109446060830187610847565b6109516080830186610847565b61095e60a08301856108f2565b61096b60c08301846108f2565b98975050505050505050565b60008060008060808587031215610991576109906107da565b5b600061099f87828801610805565b94505060206109b087828801610805565b93505060406109c187828801610805565b92505060606109d287828801610805565b91505092959194509250565b600080fd5b600080fd5b7f4e487b7100000000000000000000000000000000000000000000000000000000600052604160045260246000fd5b610a208261089c565b810181811067ffffffffffffffff82111715610a3f57610a3e6109e8565b5b80604052505050565b6000610a526107d0565b9050610a5e8282610a17565b919050565b600067ffffffffffffffff821115610a7e57610a7d6109e8565b5b610a878261089c565b9050602081019050919050565b82818337600083830152505050565b6000610ab6610ab184610a63565b610a48565b905082815260208101848484011115610ad257610ad16109e3565b5b610add848285610a94565b509392505050565b600082601f830112610afa57610af96109de565b5b8135610b0a848260208601610aa3565b91505092915050565b60008060408385031215610b2a57610b296107da565b5b6000610b3885828601610805565b925050602083013567ffffffffffffffff811115610b5957610b586107df565b5b610b6585828601610ae5565b9150509250929050565b7f4e487b7100000000000000000000000000000000000000000000000000000000600052602260045260246000fd5b60006002820490506001821680610bb657607f821691505b602082108103610bc957610bc8610b6f565b5b50919050565b7f4e487b7100000000000000000000000000000000000000000000000000000000600052603260045260246000fd5b7f5370656e6420616c7265616479207265736f6c76656400000000000000000000600082015250565b6000610c34601683610861565b9150610c3f82610bfe565b602082019050919050565b60006020820190508181036000830152610c6381610c27565b9050919050565b7f4e487b7100000000000000000000000000000000000000000000000000000000600052601160045260246000fd5b6000610ca4826107e4565b9150610caf836107e4565b9250828202610cbd816107e4565b91508282048414831517610cd457610cd3610c6a565b5b5092915050565b7f4e487b7100000000000000000000000000000000000000000000000000000000600052601260045260246000fd5b6000610d15826107e4565b9150610d20836107e4565b925082610d3057610d2f610cdb565b5b828204905092915050565b6000604082019050610d506000830185610847565b610d5d60208301846108f2565b9392505050565b6000610d6f826107e4565b91507fffffffffffffffffffffffffffffffffffffffffffffffffffffffffffffffff8203610da157610da0610c6a565b5b600182019050919050565b60008190508160005260206000209050919050565b60006020601f8301049050919050565b600082821b905092915050565b600060088302610e0e7fffffffffffffffffffffffffffffffffffffffffffffffffffffffffffffffff82610dd1565b610e188683610dd1565b95508019841693508086168417925050509392505050565b6000819050919050565b6000610e55610e50610e4b846107e4565b610e30565b6107e4565b9050919050565b6000819050919050565b610e6f83610e3a565b610e83610e7b82610e5c565b848454610dde565b825550505050565b600090565b610e98610e8b565b610ea3818484610e66565b505050565b5b81811015610ec757610ebc600082610e90565b600181019050610ea9565b5050565b601f821115610f0c57610edd81610dac565b610ee684610dc1565b81016020851015610ef5578190505b610f09610f0185610dc1565b830182610ea8565b50505b505050565b600082821c905092915050565b6000610f2f60001984600802610f11565b1980831691505092915050565b6000610f488383610f1e565b9150826002028217905092915050565b610f6182610856565b67ffffffffffffffff811115610f7a57610f796109e8565b5b610f848254610b9e565b610f8f828285610ecb565b600060209050601f831160018114610fc25760008415610fb0578287015190505b610fba8582610f3c565b865550611022565b601f198416610fd086610dac565b60005b82811015610ff857848901518255600182019150602085019450602081019050610fd3565b868310156110155784890151611011601f891682610f1e565b8355505b6001600288020188555050505b505050505050565b600060408201905061103f6000830185610847565b818103602083015261105181846108ad565b9050939250505056fea264697066735822122032b976ccb9b0c4ae613c1ed552505807b3aebacc14262751a0aea556d71ada0a64736f6c63430008120033",
  "immutableReferences": {},
  "source": "pragma solidity ^0.8.18;\r\n\r\ncontract VotingSystem {\r\n    // Structure to store spend details\r\n    struct Spend {\r\n        uint spendId;\r\n        string reason;\r\n        uint totalVotes;\r\n        uint approvalVotes;\r\n        uint denialVotes;\r\n        bool approved;\r\n        bool resolved;\r\n    }\r\n\r\n    // Array to store spends\r\n    Spend[] public spends;\r\n\r\n    // Events\r\n    event SpendCreated(uint spendId, string reason);\r\n    event SpendVoted(uint spendId, bool approved);\r\n\r\n    // Function to create a spend\r\n    function createSpend(uint _spendId, string memory _reason) public {\r\n\r\n        spends.push(Spend({\r\n            spendId: _spendId,\r\n            reason: _reason,\r\n            totalVotes: 0,\r\n            approvalVotes: 0,\r\n            denialVotes: 0,\r\n            approved: false,\r\n            resolved: false\r\n        }));\r\n        emit SpendCreated(_spendId, _reason);\r\n    }\r\n\r\n    // Function to vote on a spend\r\n    function voteOnSpend(uint _spendId, uint _approvalVotes, uint _denialVotes, uint _totalVotes) public {\r\n        for (uint i = 0; i < spends.length; i++) {\r\n            if (spends[i].spendId == _spendId) {\r\n                require(!spends[i].resolved, \"Spend already resolved\");\r\n                spends[i].approvalVotes = _approvalVotes;\r\n        spends[i].denialVotes = _denialVotes;\r\n        spends[i].totalVotes = _totalVotes;\r\n        spends[i].resolved = true;\r\n\r\n        if (_approvalVotes * 100 / _totalVotes >= 51) {\r\n            spends[i].approved = true;\r\n        } else {\r\n            spends[i].approved = false;\r\n        }\r\n\r\n        \r\n        emit SpendVoted(_spendId, spends[i].approved);\r\n        break;\r\n            }\r\n        }\r\n        \r\n    }\r\n\r\n    // Function to fetch a spend by spendId\r\n    function getSpendById(uint _spendId) public view returns (\r\n        uint spendId,\r\n        string memory reason,\r\n        uint totalVotes,\r\n        uint approvalVotes,\r\n        uint denialVotes,\r\n        bool approved,\r\n        bool resolved\r\n    ) {\r\n        for (uint i = 0; i < spends.length; i++) {\r\n            if (spends[i].spendId == _spendId) {\r\n                return (\r\n                    spends[i].spendId,\r\n                    spends[i].reason,\r\n                    spends[i].totalVotes,\r\n                    spends[i].approvalVotes,\r\n                    spends[i].denialVotes,\r\n                    spends[i].approved,\r\n                    spends[i].resolved\r\n                );\r\n            }\r\n        }\r\n    }\r\n}",
  "sourcePath": "E:\\Code\\ConTracker\\dapp\\contracts\\VotingSystem.sol",
  "compiler": {
    "name": "solc",
    "version": "0.8.18+commit.87f61d96.Emscripten.clang"
  },
  "schemaVersion": "3.4.16",
  "updatedAt": "2025-01-11T06:38:10.047Z",
  "networkType": "ethereum",
  "devdoc": {
    "kind": "dev",
    "methods": {},
    "version": 1
  },
  "userdoc": {
    "kind": "user",
    "methods": {},
    "version": 1
  }
}